{
  "contractName": "Core",
  "abi": [
    {
      "constant": true,
      "inputs": [
        {
          "name": "",
          "type": "uint256"
        }
      ],
      "name": "projectsProposed",
      "outputs": [
        {
          "name": "estimatedTime",
          "type": "uint256"
        },
        {
          "name": "company",
          "type": "address"
        },
        {
          "name": "value",
          "type": "uint256"
        }
      ],
      "payable": false,
      "stateMutability": "view",
      "type": "function"
    },
    {
      "constant": true,
      "inputs": [
        {
          "name": "",
          "type": "uint256"
        },
        {
          "name": "_company",
          "type": "address"
        }
      ],
      "name": "projectsCreated",
      "outputs": [
        {
          "name": "finishTime",
          "type": "uint256"
        },
        {
          "name": "createdTime",
          "type": "uint256"
        },
        {
          "name": "company",
          "type": "address"
        },
        {
          "name": "value",
          "type": "uint256"
        }
      ],
      "payable": false,
      "stateMutability": "view",
      "type": "function"
    },
    {
      "constant": false,
      "inputs": [
        {
          "name": "_finishTime",
          "type": "uint256"
        },
        {
          "name": "_company",
          "type": "address"
        }
      ],
      "name": "recieveFounds",
      "outputs": [
        {
          "name": "projectCreated",
          "type": "address"
        }
      ],
      "payable": true,
      "stateMutability": "payable",
      "type": "function"
    },
    {
      "constant": true,
      "inputs": [],
      "name": "getLengthOfCreatedProjects",
      "outputs": [
        {
          "name": "",
          "type": "uint256"
        }
      ],
      "payable": false,
      "stateMutability": "view",
      "type": "function"
    },
    {
      "constant": true,
      "inputs": [],
      "name": "getLengthOfProposedProjects",
      "outputs": [
        {
          "name": "",
          "type": "uint256"
        }
      ],
      "payable": false,
      "stateMutability": "view",
      "type": "function"
    },
    {
      "constant": true,
      "inputs": [
        {
          "name": "index",
          "type": "uint256"
        }
      ],
      "name": "getItemOfCreatedProjects",
      "outputs": [
        {
          "name": "",
          "type": "address"
        },
        {
          "name": "",
          "type": "uint256"
        },
        {
          "name": "",
          "type": "uint256"
        },
        {
          "name": "",
          "type": "uint256"
        }
      ],
      "payable": false,
      "stateMutability": "view",
      "type": "function"
    },
    {
      "constant": true,
      "inputs": [
        {
          "name": "index",
          "type": "uint256"
        }
      ],
      "name": "getItemOfProposedProjects",
      "outputs": [
        {
          "name": "",
          "type": "address"
        },
        {
          "name": "",
          "type": "uint256"
        },
        {
          "name": "",
          "type": "uint256"
        }
      ],
      "payable": false,
      "stateMutability": "view",
      "type": "function"
    }
  ],
  "bytecode": "0x60806040523073ffffffffffffffffffffffffffffffffffffffff163160025534801561002b57600080fd5b5061052e8061003b6000396000f3fe608060405260043610610083576000357c0100000000000000000000000000000000000000000000000000000000900463ffffffff16806349d2e49e146100885780635b43d479146100925780635ce477dc1461011b578063af35b03614610146578063d389811814610171578063dfca67fe14610201578063eee8ddd31461028a575b600080fd5b61009061031a565b005b34801561009e57600080fd5b506100cb600480360360208110156100b557600080fd5b8101908080359060200190929190505050610365565b604051808481526020018373ffffffffffffffffffffffffffffffffffffffff1673ffffffffffffffffffffffffffffffffffffffff168152602001828152602001935050505060405180910390f35b34801561012757600080fd5b506101306103be565b6040518082815260200191505060405180910390f35b34801561015257600080fd5b5061015b6103cb565b6040518082815260200191505060405180910390f35b34801561017d57600080fd5b506101aa6004803603602081101561019457600080fd5b81019080803590602001909291905050506103d7565b604051808581526020018481526020018373ffffffffffffffffffffffffffffffffffffffff1673ffffffffffffffffffffffffffffffffffffffff16815260200182815260200194505050505060405180910390f35b34801561020d57600080fd5b5061023a6004803603602081101561022457600080fd5b8101908080359060200190929190505050610436565b604051808473ffffffffffffffffffffffffffffffffffffffff1673ffffffffffffffffffffffffffffffffffffffff168152602001838152602001828152602001935050505060405180910390f35b34801561029657600080fd5b506102c3600480360360208110156102ad57600080fd5b8101908080359060200190929190505050610498565b604051808573ffffffffffffffffffffffffffffffffffffffff1673ffffffffffffffffffffffffffffffffffffffff16815260200184815260200183815260200182815260200194505050505060405180910390f35b3373ffffffffffffffffffffffffffffffffffffffff166108fc6002549081150290604051600060405180830381858888f19350505050158015610362573d6000803e3d6000fd5b50565b60018181548110151561037457fe5b90600052602060002090600302016000915090508060000154908060010160009054906101000a900473ffffffffffffffffffffffffffffffffffffffff16908060020154905083565b6000600180549050905090565b60008080549050905090565b6000818154811015156103e657fe5b90600052602060002090600402016000915090508060000154908060010154908060020160009054906101000a900473ffffffffffffffffffffffffffffffffffffffff16908060030154905084565b60008060008060018581548110151561044b57fe5b906000526020600020906003020190508060010160009054906101000a900473ffffffffffffffffffffffffffffffffffffffff1681600001548260020154935093509350509193909250565b600080600080600080868154811015156104ae57fe5b906000526020600020906004020190508060020160009054906101000a900473ffffffffffffffffffffffffffffffffffffffff16816000015482600101548360030154945094509450945050919350919356fea165627a7a7230582066f8172ac237944473cccf65ab60a26acde32b77a816615bdfe966b9b17a55000029",
  "source": "pragma solidity ^0.5.0;\n\nimport \"./Winner.sol\";\n\ncontract Core {\n\n    ProjectCreatedInfo[] public projectsCreated;\n    ProjectProposedInfo[] public projectsProposed;\n    uint contractBalance = address(this).balance;\n\n    struct ProjectCreatedInfo {\n        uint finishTime;\n        uint createdTime;\n        address company;\n        uint value;\n    }\n\n    struct ProjectProposedInfo {\n        uint estimatedTime;\n        address company;\n        uint value;\n    }\n\n    function recieveFounds() public payable {\n        msg.sender.transfer(contractBalance);\n    }\n\n    function getLengthOfCreatedProjects() public view returns (uint) {\n        return projectsCreated.length;\n    }\n\n    function getLengthOfProposedProjects() public view returns (uint) {\n        return projectsProposed.length;\n    }\n\n    function getItemOfCreatedProjects(uint index) public view returns (address, uint, uint, uint) {\n        ProjectCreatedInfo storage project = projectsCreated[index];\n        return (project.company, project.finishTime, project.createdTime, project.value);\n    }\n\n    function getItemOfProposedProjects(uint index) public view returns (address, uint, uint) {\n        ProjectProposedInfo storage project = projectsProposed[index];\n        return (project.company, project.estimatedTime, project.value);\n    }\n\n    function createProject(uint _finishTime, address _company, uint _requiredValue) internal returns (address) {\n        Winner project = new Winner();\n        require(contractBalance > _requiredValue, \"Insufficent money\");\n        contractBalance = contractBalance - _requiredValue;\n        project.setParamsAndCreate(_finishTime, _company, _requiredValue);\n        address c = address(project);\n        projectsCreated.push(ProjectCreatedInfo(_finishTime, block.timestamp, _company, _requiredValue));\n        return c;\n    }\n}",
  "sourcePath": "/Users/Cesar/Apps/dapps/hucoin/contracts/Core.sol",
  "compiler": {
    "name": "solc",
    "version": "0.5.0+commit.1d4f565a.Emscripten.clang"
  },
  "schemaVersion": "3.0.9",
  "updatedAt": "2019-05-25T17:14:29.506Z",
  "devdoc": {
    "methods": {}
  },
  "userdoc": {
    "methods": {}
  }
}