{
  "contractName": "Core",
  "abi": [
    {
      "constant": true,
      "inputs": [
        {
          "name": "",
          "type": "uint256"
        }
      ],
      "name": "projectsProposed",
      "outputs": [
        {
          "name": "company",
          "type": "address"
        },
        {
          "name": "value",
          "type": "uint256"
        },
        {
          "name": "estimatedTime",
          "type": "uint32"
        },
        {
          "name": "votes",
          "type": "uint8"
        }
      ],
      "payable": false,
      "stateMutability": "view",
      "type": "function"
    },
    {
      "constant": true,
      "inputs": [
        {
          "name": "",
          "type": "uint256"
        },
        {
          "name": "_company",
          "type": "address"
        }
      ],
      "name": "projectsCreated",
      "outputs": [
        {
          "name": "company",
          "type": "address"
        },
        {
          "name": "value",
          "type": "uint256"
        },
        {
          "name": "finishTime",
          "type": "uint32"
        },
        {
          "name": "createdTime",
          "type": "uint32"
        }
      ],
      "payable": false,
      "stateMutability": "view",
      "type": "function"
    },
    {
      "constant": true,
      "inputs": [
        {
          "name": "_finishTime",
          "type": "uint256"
        },
        {
          "name": "_company",
          "type": "address"
        }
      ],
      "name": "test",
      "outputs": [
        {
          "name": "",
          "type": "address"
        }
      ],
      "payable": true,
      "stateMutability": "payable",
      "type": "fallback"
    },
    {
      "constant": false,
      "inputs": [],
      "name": "recieveFounds",
      "outputs": [
        {
          "name": "",
          "type": "uint256"
        }
      ],
      "payable": true,
      "stateMutability": "payable",
      "type": "function"
    },
    {
      "constant": true,
      "inputs": [],
      "name": "getLengthOfCreatedProjects",
      "outputs": [
        {
          "name": "",
          "type": "uint256"
        }
      ],
      "payable": false,
      "stateMutability": "view",
      "type": "function"
    },
    {
      "constant": true,
      "inputs": [
        {
          "name": "index",
          "type": "uint256"
        }
      ],
      "name": "getLengthOfProposedProjects",
      "outputs": [
        {
          "name": "",
          "type": "uint256"
        },
        {
          "name": "",
          "type": "uint256"
        },
        {
          "name": "",
          "type": "uint256"
        },
        {
          "name": "",
          "type": "uint256"
        }
      ],
      "payable": false,
      "stateMutability": "view",
      "type": "function"
    },
    {
      "constant": true,
      "inputs": [
        {
          "name": "index",
          "type": "uint256"
        }
      ],
      "name": "getItemOfCreatedProjects",
      "outputs": [
        {
          "name": "",
          "type": "address"
        },
        {
          "name": "",
          "type": "uint256"
        },
        {
          "name": "",
          "type": "uint256"
        },
        {
          "name": "",
          "type": "uint256"
        }
      ],
      "payable": false,
      "stateMutability": "view",
      "type": "function"
    },
    {
      "constant": true,
      "inputs": [
        {
          "name": "index",
          "type": "uint256"
        },
        {
          "name": "_company",
          "type": "address"
        },
        {
          "name": "_value",
          "type": "uint256"
        }
      ],
      "name": "getItemOfProposedProjects",
      "outputs": [
        {
          "name": "",
          "type": "address"
        },
        {
          "name": "",
          "type": "uint256"
        },
        {
          "name": "",
          "type": "uint256"
        },
        {
          "name": "",
          "type": "uint256"
        }
      ],
      "payable": false,
      "stateMutability": "view",
      "type": "function"
    },
    {
      "constant": false,
      "inputs": [
        {
          "name": "_estimatedTime",
          "type": "uint32"
        },
        {
          "name": "_company",
          "type": "address"
        },
        {
          "name": "_value",
          "type": "uint256"
        }
      ],
      "name": "proposeProject",
      "outputs": [],
      "payable": false,
      "stateMutability": "nonpayable",
      "type": "function"
    },
    {
      "constant": false,
      "inputs": [
        {
          "name": "_finishTime",
          "type": "uint32"
        },
        {
          "name": "_company",
          "type": "address"
        },
        {
          "name": "_requiredValue",
          "type": "uint256"
        }
      ],
      "name": "createProject",
      "outputs": [
        {
          "name": "",
          "type": "address"
        }
      ],
      "payable": false,
      "stateMutability": "nonpayable",
      "type": "function"
    }
  ],
  "bytecode": "0x608060405234801561001057600080fd5b50610d99806100206000396000f3fe608060405260043610610099576000357c0100000000000000000000000000000000000000000000000000000000900463ffffffff16806349d2e49e1461009b5780635b43d479146100a55780635ce477dc14610147578063a5a7ccf314610172578063af35b036146101dd578063d389811814610208578063dfca67fe146102b0578063eee8ddd314610340578063f94e947a146103d0575b005b6100a361047b565b005b3480156100b157600080fd5b506100de600480360360208110156100c857600080fd5b81019080803590602001909291905050506104c4565b604051808573ffffffffffffffffffffffffffffffffffffffff1673ffffffffffffffffffffffffffffffffffffffff1681526020018481526020018363ffffffff1663ffffffff1681526020018260ff1660ff16815260200194505050505060405180910390f35b34801561015357600080fd5b5061015c610540565b6040518082815260200191505060405180910390f35b34801561017e57600080fd5b506101db6004803603606081101561019557600080fd5b81019080803563ffffffff169060200190929190803573ffffffffffffffffffffffffffffffffffffffff1690602001909291908035906020019092919050505061054d565b005b3480156101e957600080fd5b506101f261065d565b6040518082815260200191505060405180910390f35b34801561021457600080fd5b506102416004803603602081101561022b57600080fd5b8101908080359060200190929190505050610669565b604051808573ffffffffffffffffffffffffffffffffffffffff1673ffffffffffffffffffffffffffffffffffffffff1681526020018481526020018363ffffffff1663ffffffff1681526020018263ffffffff1663ffffffff16815260200194505050505060405180910390f35b3480156102bc57600080fd5b506102e9600480360360208110156102d357600080fd5b81019080803590602001909291905050506106e8565b604051808573ffffffffffffffffffffffffffffffffffffffff1673ffffffffffffffffffffffffffffffffffffffff16815260200184815260200183815260200182815260200194505050505060405180910390f35b34801561034c57600080fd5b506103796004803603602081101561036357600080fd5b810190808035906020019092919050505061077f565b604051808573ffffffffffffffffffffffffffffffffffffffff1673ffffffffffffffffffffffffffffffffffffffff16815260200184815260200183815260200182815260200194505050505060405180910390f35b3480156103dc57600080fd5b50610439600480360360608110156103f357600080fd5b81019080803563ffffffff169060200190929190803573ffffffffffffffffffffffffffffffffffffffff1690602001909291908035906020019092919050505061081b565b604051808273ffffffffffffffffffffffffffffffffffffffff1673ffffffffffffffffffffffffffffffffffffffff16815260200191505060405180910390f35b3073ffffffffffffffffffffffffffffffffffffffff166108fc349081150290604051600060405180830381858888f193505050501580156104c1573d6000803e3d6000fd5b50565b6001818154811015156104d357fe5b90600052602060002090600302016000915090508060000160009054906101000a900473ffffffffffffffffffffffffffffffffffffffff16908060010154908060020160009054906101000a900463ffffffff16908060020160049054906101000a900460ff16905084565b6000600180549050905090565b60016080604051908101604052808473ffffffffffffffffffffffffffffffffffffffff1681526020018381526020018563ffffffff168152602001600060ff168152509080600181540180825580915050906001820390600052602060002090600302016000909192909190915060008201518160000160006101000a81548173ffffffffffffffffffffffffffffffffffffffff021916908373ffffffffffffffffffffffffffffffffffffffff1602179055506020820151816001015560408201518160020160006101000a81548163ffffffff021916908363ffffffff16021790555060608201518160020160046101000a81548160ff021916908360ff160217905550505050505050565b60008080549050905090565b60008181548110151561067857fe5b90600052602060002090600302016000915090508060000160009054906101000a900473ffffffffffffffffffffffffffffffffffffffff16908060010154908060020160009054906101000a900463ffffffff16908060020160049054906101000a900463ffffffff16905084565b60008060008060006001868154811015156106ff57fe5b906000526020600020906003020190508060000160009054906101000a900473ffffffffffffffffffffffffffffffffffffffff168160020160009054906101000a900463ffffffff1682600101548360020160049054906101000a900460ff168263ffffffff1692508060ff1690509450945094509450509193509193565b6000806000806000808681548110151561079557fe5b906000526020600020906003020190508060000160009054906101000a900473ffffffffffffffffffffffffffffffffffffffff168160020160009054906101000a900463ffffffff168260020160049054906101000a900463ffffffff1683600101548263ffffffff1692508163ffffffff1691509450945094509450509193509193565b6000803073ffffffffffffffffffffffffffffffffffffffff163190506000610842610acb565b604051809103906000f08015801561085e573d6000803e3d6000fd5b50905083821115156108d8576040517f08c379a00000000000000000000000000000000000000000000000000000000081526004018080602001828103825260118152602001807f496e737566666963656e74206d6f6e657900000000000000000000000000000081525060200191505060405180910390fd5b83820391508073ffffffffffffffffffffffffffffffffffffffff166372c0d7b08787876040518463ffffffff167c0100000000000000000000000000000000000000000000000000000000028152600401808463ffffffff1681526020018373ffffffffffffffffffffffffffffffffffffffff1673ffffffffffffffffffffffffffffffffffffffff1681526020018281526020019350505050600060405180830381600087803b15801561098e57600080fd5b505af11580156109a2573d6000803e3d6000fd5b50505050600081905060006080604051908101604052808873ffffffffffffffffffffffffffffffffffffffff1681526020018781526020018963ffffffff1681526020014263ffffffff168152509080600181540180825580915050906001820390600052602060002090600302016000909192909190915060008201518160000160006101000a81548173ffffffffffffffffffffffffffffffffffffffff021916908373ffffffffffffffffffffffffffffffffffffffff1602179055506020820151816001015560408201518160020160006101000a81548163ffffffff021916908363ffffffff16021790555060608201518160020160046101000a81548163ffffffff021916908363ffffffff1602179055505050508093505050509392505050565b60405161029280610adc8339019056fe608060405234801561001057600080fd5b50610272806100206000396000f3fe60806040526004361061006d576000357c0100000000000000000000000000000000000000000000000000000000900463ffffffff168063165e602c146100725780633fa4f2451461009d5780635958611e146100c85780636904c94d146100f357806372c0d7b01461014a575b600080fd5b34801561007e57600080fd5b506100876101af565b6040518082815260200191505060405180910390f35b3480156100a957600080fd5b506100b26101b9565b6040518082815260200191505060405180910390f35b3480156100d457600080fd5b506100dd6101bf565b6040518082815260200191505060405180910390f35b3480156100ff57600080fd5b506101086101c5565b604051808273ffffffffffffffffffffffffffffffffffffffff1673ffffffffffffffffffffffffffffffffffffffff16815260200191505060405180910390f35b34801561015657600080fd5b506101ad6004803603606081101561016d57600080fd5b8101908080359060200190929190803573ffffffffffffffffffffffffffffffffffffffff169060200190929190803590602001909291905050506101eb565b005b6000600154905090565b60015481565b60005481565b600260009054906101000a900473ffffffffffffffffffffffffffffffffffffffff1681565b8260008190555081600260006101000a81548173ffffffffffffffffffffffffffffffffffffffff021916908373ffffffffffffffffffffffffffffffffffffffff160217905550806001819055504260038190555050505056fea165627a7a72305820c32634231387fac483fee5fcceda06763a58bd311a3dd82c3ea04c2c13ba3adc0029a165627a7a7230582083dd0450ae0c3c77752351f122a78050958a7e51def27abaa3c820908e9e9a800029",
  "source": "pragma solidity ^0.5.0;\n\nimport \"./Winner.sol\";\n// Core.deploed().then(instance => { app = instance })\n// web3.eth.defaultAccount = \"0xb10aFbb40E46FFe52B136b8C123DDd00833C65B0\"\n\ncontract Core {\n\n    ProjectCreatedInfo[] public projectsCreated;\n    ProjectProposedInfo[] public projectsProposed;\n\n    struct ProjectCreatedInfo {\n        address company;\n        uint value;\n        uint32 finishTime;\n        uint32 createdTime;\n    }\n\n    struct ProjectProposedInfo {\n        address company;\n        uint value;\n        uint32 estimatedTime;\n        uint8 votes;\n    }\n\n    function() external payable { }\n\n    function recieveFounds() public payable {\n        address(this).transfer(msg.value);\n    }\n\n    function getLengthOfCreatedProjects() public view returns (uint) {\n        return projectsCreated.length;\n    }\n\n    function getLengthOfProposedProjects() public view returns (uint) {\n        return projectsProposed.length;\n    }\n\n    function getItemOfCreatedProjects(uint index) public view returns (address, uint, uint, uint) {\n        ProjectCreatedInfo storage project = projectsCreated[index];\n        return (project.company, project.finishTime, project.createdTime, project.value);\n    }\n\n    function getItemOfProposedProjects(uint index) public view returns (address, uint, uint, uint) {\n        ProjectProposedInfo storage project = projectsProposed[index];\n        return (project.company, project.estimatedTime, project.value, project.votes);\n    }\n\n    function proposeProject(uint32 _estimatedTime, address _company, uint _value) external {\n        projectsProposed.push(ProjectProposedInfo(_company, _value, _estimatedTime, 0));\n    }\n\n    function createProject(uint32 _finishTime, address _company, uint _requiredValue) public returns (address) {\n        uint contractBalance = address(this).balance;\n        Winner project = new Winner();\n        require(contractBalance > _requiredValue, \"Insufficent money\");\n        contractBalance = contractBalance - _requiredValue;\n        project.setParamsAndCreate(_finishTime, _company, _requiredValue);\n        address c = address(project);\n        projectsCreated.push(ProjectCreatedInfo(_company, _requiredValue, _finishTime, uint32(block.timestamp)));\n        return c;\n    }\n}",
  "sourcePath": "/Users/Cesar/Apps/dapps/hucoin/contracts/Core.sol",
  "compiler": {
    "name": "solc",
    "version": "0.5.0+commit.1d4f565a.Emscripten.clang"
  },
  "schemaVersion": "3.0.9",
  "updatedAt": "2019-05-26T00:10:56.218Z",
  "devdoc": {
    "methods": {}
  },
  "userdoc": {
    "methods": {}
  }
}