{
  "contractName": "Core",
  "abi": [
    {
      "constant": true,
      "inputs": [
        {
          "name": "",
          "type": "uint256"
        }
      ],
      "name": "projectsProposed",
      "outputs": [
        {
          "name": "company",
          "type": "address"
        },
        {
          "name": "value",
          "type": "uint256"
        },
        {
          "name": "estimatedTime",
          "type": "uint32"
        },
        {
          "name": "id",
          "type": "uint8"
        },
        {
          "name": "votes",
          "type": "uint8"
        }
      ],
      "payable": false,
      "stateMutability": "view",
      "type": "function"
    },
    {
      "constant": true,
      "inputs": [],
      "name": "lengthOfProposedProjects",
      "outputs": [
        {
          "name": "",
          "type": "uint256"
        }
      ],
      "payable": false,
      "stateMutability": "view",
      "type": "function"
    },
    {
      "constant": true,
      "inputs": [
        {
          "name": "",
          "type": "uint256"
        }
      ],
      "name": "donators",
      "outputs": [
        {
          "name": "",
          "type": "address"
        }
      ],
      "payable": false,
      "stateMutability": "view",
      "type": "function"
    },
    {
      "constant": true,
      "inputs": [
        {
          "name": "",
          "type": "uint256"
        }
      ],
      "name": "projectsCreated",
      "outputs": [
        {
          "name": "company",
          "type": "address"
        },
        {
          "name": "value",
          "type": "uint256"
        },
        {
          "name": "finishTime",
          "type": "uint32"
        },
        {
          "name": "createdTime",
          "type": "uint32"
        }
      ],
      "payable": false,
      "stateMutability": "view",
      "type": "function"
    },
    {
      "payable": true,
      "stateMutability": "payable",
      "type": "fallback"
    },
    {
      "constant": false,
      "inputs": [],
      "name": "recieveFounds",
      "outputs": [],
      "payable": true,
      "stateMutability": "payable",
      "type": "function"
    },
    {
      "constant": true,
      "inputs": [],
      "name": "getLengthOfDonators",
      "outputs": [
        {
          "name": "",
          "type": "uint256"
        }
      ],
      "payable": false,
      "stateMutability": "view",
      "type": "function"
    },
    {
      "constant": true,
      "inputs": [
        {
          "name": "index",
          "type": "uint256"
        }
      ],
      "name": "checkDonator",
      "outputs": [
        {
          "name": "",
          "type": "address"
        }
      ],
      "payable": false,
      "stateMutability": "view",
      "type": "function"
    },
    {
      "constant": true,
      "inputs": [],
      "name": "lengthOfCreatedProjects",
      "outputs": [
        {
          "name": "",
          "type": "uint256"
        }
      ],
      "payable": false,
      "stateMutability": "view",
      "type": "function"
    },
    {
      "constant": true,
      "inputs": [
        {
          "name": "index",
          "type": "uint256"
        }
      ],
      "name": "getItemOfCreatedProjects",
      "outputs": [
        {
          "name": "",
          "type": "address"
        },
        {
          "name": "",
          "type": "uint256"
        },
        {
          "name": "",
          "type": "uint256"
        },
        {
          "name": "",
          "type": "uint256"
        }
      ],
      "payable": false,
      "stateMutability": "view",
      "type": "function"
    },
    {
      "constant": true,
      "inputs": [
        {
          "name": "index",
          "type": "uint256"
        }
      ],
      "name": "getItemOfProposedProjects",
      "outputs": [
        {
          "name": "",
          "type": "address"
        },
        {
          "name": "",
          "type": "uint256"
        },
        {
          "name": "",
          "type": "uint256"
        },
        {
          "name": "",
          "type": "uint256"
        }
      ],
      "payable": false,
      "stateMutability": "view",
      "type": "function"
    },
    {
      "constant": false,
      "inputs": [
        {
          "name": "_estimatedTime",
          "type": "uint32"
        },
        {
          "name": "_company",
          "type": "address"
        },
        {
          "name": "_value",
          "type": "uint256"
        }
      ],
      "name": "proposeProject",
      "outputs": [],
      "payable": false,
      "stateMutability": "nonpayable",
      "type": "function"
    },
    {
      "constant": false,
      "inputs": [
        {
          "name": "_finishTime",
          "type": "uint32"
        },
        {
          "name": "_company",
          "type": "address"
        },
        {
          "name": "_requiredValue",
          "type": "uint256"
        }
      ],
      "name": "createProject",
      "outputs": [
        {
          "name": "",
          "type": "address"
        }
      ],
      "payable": false,
      "stateMutability": "nonpayable",
      "type": "function"
    }
  ],
  "bytecode": "0x6080604052600060035534801561001557600080fd5b50610a7c806100256000396000f3fe6080604052600436106100af576000357c0100000000000000000000000000000000000000000000000000000000900463ffffffff168063453f4ef8146100b157806349d2e49e1461012c5780635b43d4791461013657806370713df4146101e557806394ff992514610210578063a5a7ccf31461023b578063ac62f566146102a6578063cd9e89c414610321578063d38981181461034c578063dfca67fe146103f4578063eee8ddd314610484575b005b3480156100bd57600080fd5b506100ea600480360360208110156100d457600080fd5b8101908080359060200190929190505050610514565b604051808273ffffffffffffffffffffffffffffffffffffffff1673ffffffffffffffffffffffffffffffffffffffff16815260200191505060405180910390f35b610134610557565b005b34801561014257600080fd5b5061016f6004803603602081101561015957600080fd5b8101908080359060200190929190505050610606565b604051808673ffffffffffffffffffffffffffffffffffffffff1673ffffffffffffffffffffffffffffffffffffffff1681526020018581526020018463ffffffff1663ffffffff1681526020018360ff1660ff1681526020018260ff1660ff1681526020019550505050505060405180910390f35b3480156101f157600080fd5b506101fa610695565b6040518082815260200191505060405180910390f35b34801561021c57600080fd5b5061022561069b565b6040518082815260200191505060405180910390f35b34801561024757600080fd5b506102a46004803603606081101561025e57600080fd5b81019080803563ffffffff169060200190929190803573ffffffffffffffffffffffffffffffffffffffff169060200190929190803590602001909291905050506106a8565b005b3480156102b257600080fd5b506102df600480360360208110156102c957600080fd5b8101908080359060200190929190505050610802565b604051808273ffffffffffffffffffffffffffffffffffffffff1673ffffffffffffffffffffffffffffffffffffffff16815260200191505060405180910390f35b34801561032d57600080fd5b50610336610840565b6040518082815260200191505060405180910390f35b34801561035857600080fd5b506103856004803603602081101561036f57600080fd5b810190808035906020019092919050505061084c565b604051808573ffffffffffffffffffffffffffffffffffffffff1673ffffffffffffffffffffffffffffffffffffffff1681526020018481526020018363ffffffff1663ffffffff1681526020018263ffffffff1663ffffffff16815260200194505050505060405180910390f35b34801561040057600080fd5b5061042d6004803603602081101561041757600080fd5b81019080803590602001909291905050506108cb565b604051808573ffffffffffffffffffffffffffffffffffffffff1673ffffffffffffffffffffffffffffffffffffffff16815260200184815260200183815260200182815260200194505050505060405180910390f35b34801561049057600080fd5b506104bd600480360360208110156104a757600080fd5b8101908080359060200190929190505050610962565b604051808573ffffffffffffffffffffffffffffffffffffffff1673ffffffffffffffffffffffffffffffffffffffff16815260200184815260200183815260200182815260200194505050505060405180910390f35b600060028281548110151561052557fe5b9060005260206000200160009054906101000a900473ffffffffffffffffffffffffffffffffffffffff169050919050565b60023390806001815401808255809150509060018203906000526020600020016000909192909190916101000a81548173ffffffffffffffffffffffffffffffffffffffff021916908373ffffffffffffffffffffffffffffffffffffffff160217905550503073ffffffffffffffffffffffffffffffffffffffff166108fc349081150290604051600060405180830381858888f19350505050158015610603573d6000803e3d6000fd5b50565b60018181548110151561061557fe5b90600052602060002090600302016000915090508060000160009054906101000a900473ffffffffffffffffffffffffffffffffffffffff16908060010154908060020160009054906101000a900463ffffffff16908060020160049054906101000a900460ff16908060020160059054906101000a900460ff16905085565b60035481565b6000600280549050905090565b6106b06109fe565b60a0604051908101604052808473ffffffffffffffffffffffffffffffffffffffff1681526020018381526020018563ffffffff16815260200160035460ff168152602001600060ff1681525090506003600081548092919060010191905055506001819080600181540180825580915050906001820390600052602060002090600302016000909192909190915060008201518160000160006101000a81548173ffffffffffffffffffffffffffffffffffffffff021916908373ffffffffffffffffffffffffffffffffffffffff1602179055506020820151816001015560408201518160020160006101000a81548163ffffffff021916908363ffffffff16021790555060608201518160020160046101000a81548160ff021916908360ff16021790555060808201518160020160056101000a81548160ff021916908360ff16021790555050505050505050565b60028181548110151561081157fe5b906000526020600020016000915054906101000a900473ffffffffffffffffffffffffffffffffffffffff1681565b60008080549050905090565b60008181548110151561085b57fe5b90600052602060002090600302016000915090508060000160009054906101000a900473ffffffffffffffffffffffffffffffffffffffff16908060010154908060020160009054906101000a900463ffffffff16908060020160049054906101000a900463ffffffff16905084565b60008060008060006001868154811015156108e257fe5b906000526020600020906003020190508060000160009054906101000a900473ffffffffffffffffffffffffffffffffffffffff168160020160009054906101000a900463ffffffff1682600101548360020160059054906101000a900460ff168263ffffffff1692508060ff1690509450945094509450509193509193565b6000806000806000808681548110151561097857fe5b906000526020600020906003020190508060000160009054906101000a900473ffffffffffffffffffffffffffffffffffffffff168160020160009054906101000a900463ffffffff168260020160049054906101000a900463ffffffff1683600101548263ffffffff1692508163ffffffff1691509450945094509450509193509193565b60a060405190810160405280600073ffffffffffffffffffffffffffffffffffffffff16815260200160008152602001600063ffffffff168152602001600060ff168152602001600060ff168152509056fea165627a7a7230582032dc294332db7d3c580c05c907d6e25dd33946d2dd9a01c267c19c0c3e5a508f0029",
  "source": "pragma solidity ^0.5.0;\n\nimport \"./Winner.sol\";\n// web3.eth.defaultAccount = \"0xb10aFbb40E46FFe52B136b8C123DDd00833C65B0\"\n// Voter.deployed().then(test => { voter = instance })\n// voter.recieveFounds({value: web3.utils.toWei('1')})\n// voter.proposeProject(123123123, \"0xb10aFbb40E46FFe52B136b8C123DDd00833C65B0\", 123)\n// voter.voteForProyect(0, true)\n\ncontract Core {\n\n    ProjectCreatedInfo[] public projectsCreated;\n    ProjectProposedInfo[] public projectsProposed;\n    address[] public donators;\n    uint public lengthOfProposedProjects = 0;\n\n    struct ProjectCreatedInfo {\n        address company;\n        uint value;\n        uint32 finishTime;\n        uint32 createdTime;\n    }\n\n    struct ProjectProposedInfo {\n        address company;\n        uint value;\n        uint32 estimatedTime;\n        uint8 id;\n        uint8 votes;\n    }\n\n    function() external payable { }\n\n    function recieveFounds() public payable {\n        donators.push(msg.sender);\n        address(this).transfer(msg.value);\n    }\n\n    function getLengthOfDonators() public view returns (uint) {\n        return donators.length;\n    }\n\n    function checkDonator(uint index) public view returns (address) {\n        return donators[index];\n    }\n\n    function lengthOfCreatedProjects() public view returns (uint) {\n        return projectsCreated.length;\n    }\n\n    function getItemOfCreatedProjects(uint index) public view returns (address, uint, uint, uint) {\n        ProjectCreatedInfo storage project = projectsCreated[index];\n        return (project.company, project.finishTime, project.createdTime, project.value);\n    }\n\n    function getItemOfProposedProjects(uint index) public view returns (address, uint, uint, uint) {\n        ProjectProposedInfo storage project = projectsProposed[index];\n        return (project.company, project.estimatedTime, project.value, project.votes);\n    }\n\n    function proposeProject(uint32 _estimatedTime, address _company, uint _value) external {\n        ProjectProposedInfo memory project = ProjectProposedInfo(_company, _value, _estimatedTime, uint8(lengthOfProposedProjects), 0);\n        lengthOfProposedProjects++;\n        projectsProposed.push(project);\n    }\n\n    function createProject(uint32 _finishTime, address _company, uint _requiredValue) internal returns (address) {\n        uint contractBalance = address(this).balance;\n        Winner project = new Winner();\n        require(contractBalance > _requiredValue, \"Insufficent money\");\n        contractBalance = contractBalance - _requiredValue;\n        project.setParamsAndCreate(_finishTime, _company, _requiredValue);\n        address c = address(project);\n        projectsCreated.push(ProjectCreatedInfo(_company, _requiredValue, _finishTime, uint32(block.timestamp)));\n        return c;\n    }\n}",
  "sourcePath": "/Users/Cesar/Apps/dapps/hucoin/contracts/Core.sol",
  "compiler": {
    "name": "solc",
    "version": "0.5.0+commit.1d4f565a.Emscripten.clang"
  },
  "schemaVersion": "3.0.9",
  "updatedAt": "2019-05-26T10:03:28.108Z",
  "devdoc": {
    "methods": {}
  },
  "userdoc": {
    "methods": {}
  }
}