{
  "contractName": "Project",
  "abi": [
    {
      "constant": true,
      "inputs": [],
      "name": "value",
      "outputs": [
        {
          "name": "",
          "type": "uint256"
        }
      ],
      "payable": false,
      "stateMutability": "view",
      "type": "function"
    },
    {
      "constant": true,
      "inputs": [],
      "name": "finishTime",
      "outputs": [
        {
          "name": "",
          "type": "uint256"
        }
      ],
      "payable": false,
      "stateMutability": "view",
      "type": "function"
    },
    {
      "constant": true,
      "inputs": [],
      "name": "company",
      "outputs": [
        {
          "name": "",
          "type": "address"
        }
      ],
      "payable": false,
      "stateMutability": "view",
      "type": "function"
    },
    {
      "constant": false,
      "inputs": [
        {
          "name": "_finishTime",
          "type": "uint256"
        },
        {
          "name": "_company",
          "type": "address"
        }
      ],
      "name": "setParameters",
      "outputs": [
        {
          "name": "",
          "type": "uint256"
        }
      ],
      "payable": false,
      "stateMutability": "nonpayable",
      "type": "constructor"
    },
    {
      "constant": false,
      "inputs": [
        {
          "name": "_finishTime",
          "type": "uint256"
        },
        {
          "name": "_company",
          "type": "address"
        },
        {
          "name": "_createdAt",
          "type": "uint256"
        }
      ],
      "name": "setParameters",
      "outputs": [
        {
          "name": "",
          "type": "uint256"
        }
      ],
      "payable": true,
      "stateMutability": "payable",
      "type": "function"
    },
    {
      "inputs": [
        {
          "name": "_finishTime",
          "type": "uint256"
        },
        {
          "name": "_company",
          "type": "address"
        }
      ],
      "payable": true,
      "stateMutability": "payable",
      "type": "constructor"
    }
  ],
  "bytecode": "0x608060405234801561001057600080fd5b50610167806100206000396000f3fe608060405260043610610057576000357c0100000000000000000000000000000000000000000000000000000000900463ffffffff1680633fa4f2451461005c5780635958611e146100875780636904c94d146100b2575b600080fd5b34801561006857600080fd5b50610071610109565b6040518082815260200191505060405180910390f35b34801561009357600080fd5b5061009c61010f565b6040518082815260200191505060405180910390f35b3480156100be57600080fd5b506100c7610115565b604051808273ffffffffffffffffffffffffffffffffffffffff1673ffffffffffffffffffffffffffffffffffffffff16815260200191505060405180910390f35b60015481565b60005481565b600260009054906101000a900473ffffffffffffffffffffffffffffffffffffffff168156fea165627a7a72305820bbcbb4896e8376dec711e0f81a318414d80bee1d78c3e4ab2665cfddf3a5fb4b0029",
  "source": "pragma solidity ^0.5.0;\n\ncontract Project {\n    uint public finishTime;\n    uint public value;\n    address public company;\n\n    constructor() public { }\n\n}",
  "sourcePath": "/Users/Cesar/Apps/dapps/hucoin/contracts/Project.sol",
  "compiler": {
    "name": "solc",
    "version": "0.5.0+commit.1d4f565a.Emscripten.clang"
  },
  "schemaVersion": "3.0.9",
  "updatedAt": "2019-05-25T15:16:44.085Z",
  "devdoc": {
    "methods": {}
  },
  "userdoc": {
    "methods": {}
  }
}