{
  "contractName": "Voter",
  "abi": [
    {
      "constant": true,
      "inputs": [
        {
          "name": "index",
          "type": "uint256"
        }
      ],
      "name": "checkDonator",
      "outputs": [
        {
          "name": "",
          "type": "address"
        }
      ],
      "payable": false,
      "stateMutability": "view",
      "type": "function"
    },
    {
      "constant": false,
      "inputs": [],
      "name": "recieveFounds",
      "outputs": [],
      "payable": true,
      "stateMutability": "payable",
      "type": "function"
    },
    {
      "constant": true,
      "inputs": [
        {
          "name": "",
          "type": "uint256"
        }
      ],
      "name": "projectsProposed",
      "outputs": [
        {
          "name": "company",
          "type": "address"
        },
        {
          "name": "value",
          "type": "uint256"
        },
        {
          "name": "estimatedTime",
          "type": "uint32"
        },
        {
          "name": "id",
          "type": "uint8"
        },
        {
          "name": "votes",
          "type": "uint8"
        }
      ],
      "payable": false,
      "stateMutability": "view",
      "type": "function"
    },
    {
      "constant": true,
      "inputs": [],
      "name": "lengthOfProposedProjects",
      "outputs": [
        {
          "name": "",
          "type": "uint256"
        }
      ],
      "payable": false,
      "stateMutability": "view",
      "type": "function"
    },
    {
      "constant": true,
      "inputs": [],
      "name": "getLengthOfDonators",
      "outputs": [
        {
          "name": "",
          "type": "uint256"
        }
      ],
      "payable": false,
      "stateMutability": "view",
      "type": "function"
    },
    {
      "constant": false,
      "inputs": [
        {
          "name": "_estimatedTime",
          "type": "uint32"
        },
        {
          "name": "_company",
          "type": "address"
        },
        {
          "name": "_value",
          "type": "uint256"
        }
      ],
      "name": "proposeProject",
      "outputs": [],
      "payable": false,
      "stateMutability": "nonpayable",
      "type": "function"
    },
    {
      "constant": true,
      "inputs": [
        {
          "name": "",
          "type": "uint256"
        }
      ],
      "name": "donators",
      "outputs": [
        {
          "name": "",
          "type": "address"
        }
      ],
      "payable": false,
      "stateMutability": "view",
      "type": "function"
    },
    {
      "constant": true,
      "inputs": [],
      "name": "lengthOfCreatedProjects",
      "outputs": [
        {
          "name": "",
          "type": "uint256"
        }
      ],
      "payable": false,
      "stateMutability": "view",
      "type": "function"
    },
    {
      "constant": true,
      "inputs": [
        {
          "name": "",
          "type": "uint256"
        }
      ],
      "name": "projectsCreated",
      "outputs": [
        {
          "name": "company",
          "type": "address"
        },
        {
          "name": "value",
          "type": "uint256"
        },
        {
          "name": "finishTime",
          "type": "uint32"
        },
        {
          "name": "createdTime",
          "type": "uint32"
        }
      ],
      "payable": false,
      "stateMutability": "view",
      "type": "function"
    },
    {
      "constant": true,
      "inputs": [
        {
          "name": "index",
          "type": "uint256"
        }
      ],
      "name": "getItemOfProposedProjects",
      "outputs": [
        {
          "name": "",
          "type": "address"
        },
        {
          "name": "",
          "type": "uint256"
        },
        {
          "name": "",
          "type": "uint256"
        },
        {
          "name": "",
          "type": "uint256"
        }
      ],
      "payable": false,
      "stateMutability": "view",
      "type": "function"
    },
    {
      "constant": true,
      "inputs": [
        {
          "name": "index",
          "type": "uint256"
        }
      ],
      "name": "getItemOfCreatedProjects",
      "outputs": [
        {
          "name": "",
          "type": "address"
        },
        {
          "name": "",
          "type": "uint256"
        },
        {
          "name": "",
          "type": "uint256"
        },
        {
          "name": "",
          "type": "uint256"
        }
      ],
      "payable": false,
      "stateMutability": "view",
      "type": "function"
    },
    {
      "constant": false,
      "inputs": [
        {
          "name": "_finishTime",
          "type": "uint32"
        },
        {
          "name": "_company",
          "type": "address"
        },
        {
          "name": "_requiredValue",
          "type": "uint256"
        }
      ],
      "name": "createProject",
      "outputs": [
        {
          "name": "",
          "type": "address"
        }
      ],
      "payable": true,
      "stateMutability": "payable",
      "type": "fallback"
    },
    {
      "payable": false,
      "stateMutability": "nonpayable",
      "type": "function",
      "constant": false,
      "inputs": [],
      "name": "retrieveWinner",
      "outputs": []
    },
    {
      "constant": false,
      "inputs": [
        {
          "name": "_index",
          "type": "uint256"
        },
        {
          "name": "_vote",
          "type": "bool"
        }
      ],
      "name": "voteForProject",
      "outputs": [],
      "payable": false,
      "stateMutability": "nonpayable",
      "type": "function"
    },
    {
      "constant": false,
      "inputs": [
        {
          "name": "_index",
          "type": "uint256"
        },
        {
          "name": "_vote",
          "type": "bool"
        }
      ],
      "name": "voteForProject",
      "outputs": [],
      "payable": false,
      "stateMutability": "nonpayable",
      "type": "function"
    }
  ],
  "bytecode": "0x6080604052600060035534801561001557600080fd5b506112a7806100256000396000f3fe6080604052600436106100c5576000357c0100000000000000000000000000000000000000000000000000000000900463ffffffff1680630b8ede63146100c75780633f0d66b4146100de578063453f4ef81461012557806349d2e49e146101a05780635b43d479146101aa57806370713df41461025957806394ff992514610284578063a5a7ccf3146102af578063ac62f5661461031a578063cd9e89c414610395578063d3898118146103c0578063dfca67fe14610468578063eee8ddd3146104f8575b005b3480156100d357600080fd5b506100dc610588565b005b3480156100ea57600080fd5b506101236004803603604081101561010157600080fd5b81019080803590602001909291908035151590602001909291905050506106ab565b005b34801561013157600080fd5b5061015e6004803603602081101561014857600080fd5b8101908080359060200190929190505050610731565b604051808273ffffffffffffffffffffffffffffffffffffffff1673ffffffffffffffffffffffffffffffffffffffff16815260200191505060405180910390f35b6101a8610774565b005b3480156101b657600080fd5b506101e3600480360360208110156101cd57600080fd5b8101908080359060200190929190505050610823565b604051808673ffffffffffffffffffffffffffffffffffffffff1673ffffffffffffffffffffffffffffffffffffffff1681526020018581526020018463ffffffff1663ffffffff1681526020018360ff1660ff1681526020018260ff1660ff1681526020019550505050505060405180910390f35b34801561026557600080fd5b5061026e6108b2565b6040518082815260200191505060405180910390f35b34801561029057600080fd5b506102996108b8565b6040518082815260200191505060405180910390f35b3480156102bb57600080fd5b50610318600480360360608110156102d257600080fd5b81019080803563ffffffff169060200190929190803573ffffffffffffffffffffffffffffffffffffffff169060200190929190803590602001909291905050506108c5565b005b34801561032657600080fd5b506103536004803603602081101561033d57600080fd5b8101908080359060200190929190505050610a1f565b604051808273ffffffffffffffffffffffffffffffffffffffff1673ffffffffffffffffffffffffffffffffffffffff16815260200191505060405180910390f35b3480156103a157600080fd5b506103aa610a5d565b6040518082815260200191505060405180910390f35b3480156103cc57600080fd5b506103f9600480360360208110156103e357600080fd5b8101908080359060200190929190505050610a69565b604051808573ffffffffffffffffffffffffffffffffffffffff1673ffffffffffffffffffffffffffffffffffffffff1681526020018481526020018363ffffffff1663ffffffff1681526020018263ffffffff1663ffffffff16815260200194505050505060405180910390f35b34801561047457600080fd5b506104a16004803603602081101561048b57600080fd5b8101908080359060200190929190505050610ae8565b604051808573ffffffffffffffffffffffffffffffffffffffff1673ffffffffffffffffffffffffffffffffffffffff16815260200184815260200183815260200182815260200194505050505060405180910390f35b34801561050457600080fd5b506105316004803603602081101561051b57600080fd5b8101908080359060200190929190505050610b7f565b604051808573ffffffffffffffffffffffffffffffffffffffff1673ffffffffffffffffffffffffffffffffffffffff16815260200184815260200183815260200182815260200194505050505060405180910390f35b6000610592610c1b565b905061059c610f87565b6001828154811015156105ab57fe5b906000526020600020906003020160a060405190810160405290816000820160009054906101000a900473ffffffffffffffffffffffffffffffffffffffff1673ffffffffffffffffffffffffffffffffffffffff1673ffffffffffffffffffffffffffffffffffffffff168152602001600182015481526020016002820160009054906101000a900463ffffffff1663ffffffff1663ffffffff1681526020016002820160049054906101000a900460ff1660ff1660ff1681526020016002820160059054906101000a900460ff1660ff1660ff1681525050905060008160400151420190506106a58183600001518460200151610cb6565b50505050565b801561072d576106f4600180848154811015156106c457fe5b906000526020600020906003020160020160059054906101000a900460ff1660ff16610f6690919063ffffffff16565b60018381548110151561070357fe5b906000526020600020906003020160020160056101000a81548160ff021916908360ff1602179055505b5050565b600060028281548110151561074257fe5b9060005260206000200160009054906101000a900473ffffffffffffffffffffffffffffffffffffffff169050919050565b60023390806001815401808255809150509060018203906000526020600020016000909192909190916101000a81548173ffffffffffffffffffffffffffffffffffffffff021916908373ffffffffffffffffffffffffffffffffffffffff160217905550503073ffffffffffffffffffffffffffffffffffffffff166108fc349081150290604051600060405180830381858888f19350505050158015610820573d6000803e3d6000fd5b50565b60018181548110151561083257fe5b90600052602060002090600302016000915090508060000160009054906101000a900473ffffffffffffffffffffffffffffffffffffffff16908060010154908060020160009054906101000a900463ffffffff16908060020160049054906101000a900460ff16908060020160059054906101000a900460ff16905085565b60035481565b6000600280549050905090565b6108cd610f87565b60a0604051908101604052808473ffffffffffffffffffffffffffffffffffffffff1681526020018381526020018563ffffffff16815260200160035460ff168152602001600060ff1681525090506003600081548092919060010191905055506001819080600181540180825580915050906001820390600052602060002090600302016000909192909190915060008201518160000160006101000a81548173ffffffffffffffffffffffffffffffffffffffff021916908373ffffffffffffffffffffffffffffffffffffffff1602179055506020820151816001015560408201518160020160006101000a81548163ffffffff021916908363ffffffff16021790555060608201518160020160046101000a81548160ff021916908360ff16021790555060808201518160020160056101000a81548160ff021916908360ff16021790555050505050505050565b600281815481101515610a2e57fe5b906000526020600020016000915054906101000a900473ffffffffffffffffffffffffffffffffffffffff1681565b60008080549050905090565b600081815481101515610a7857fe5b90600052602060002090600302016000915090508060000160009054906101000a900473ffffffffffffffffffffffffffffffffffffffff16908060010154908060020160009054906101000a900463ffffffff16908060020160049054906101000a900463ffffffff16905084565b6000806000806000600186815481101515610aff57fe5b906000526020600020906003020190508060000160009054906101000a900473ffffffffffffffffffffffffffffffffffffffff168160020160009054906101000a900463ffffffff1682600101548360020160059054906101000a900460ff168263ffffffff1692508060ff1690509450945094509450509193509193565b60008060008060008086815481101515610b9557fe5b906000526020600020906003020190508060000160009054906101000a900473ffffffffffffffffffffffffffffffffffffffff168160020160009054906101000a900463ffffffff168260020160049054906101000a900463ffffffff1683600101548263ffffffff1692508163ffffffff1691509450945094509450509193509193565b6000806000905060008090505b600180549050811015610cb15781600182815481101515610c4557fe5b906000526020600020906003020160020160059054906101000a900460ff1660ff161115610ca457600181815481101515610c7c57fe5b906000526020600020906003020160020160059054906101000a900460ff1660ff1691508092505b8080600101915050610c28565b505090565b6000803073ffffffffffffffffffffffffffffffffffffffff163190506000610cdd610fd9565b604051809103906000f080158015610cf9573d6000803e3d6000fd5b5090508382111515610d73576040517f08c379a00000000000000000000000000000000000000000000000000000000081526004018080602001828103825260118152602001807f496e737566666963656e74206d6f6e657900000000000000000000000000000081525060200191505060405180910390fd5b83820391508073ffffffffffffffffffffffffffffffffffffffff166372c0d7b08787876040518463ffffffff167c0100000000000000000000000000000000000000000000000000000000028152600401808463ffffffff1681526020018373ffffffffffffffffffffffffffffffffffffffff1673ffffffffffffffffffffffffffffffffffffffff1681526020018281526020019350505050600060405180830381600087803b158015610e2957600080fd5b505af1158015610e3d573d6000803e3d6000fd5b50505050600081905060006080604051908101604052808873ffffffffffffffffffffffffffffffffffffffff1681526020018781526020018963ffffffff1681526020014263ffffffff168152509080600181540180825580915050906001820390600052602060002090600302016000909192909190915060008201518160000160006101000a81548173ffffffffffffffffffffffffffffffffffffffff021916908373ffffffffffffffffffffffffffffffffffffffff1602179055506020820151816001015560408201518160020160006101000a81548163ffffffff021916908363ffffffff16021790555060608201518160020160046101000a81548163ffffffff021916908363ffffffff1602179055505050508093505050509392505050565b6000808284019050838110151515610f7d57600080fd5b8091505092915050565b60a060405190810160405280600073ffffffffffffffffffffffffffffffffffffffff16815260200160008152602001600063ffffffff168152602001600060ff168152602001600060ff1681525090565b60405161029280610fea8339019056fe608060405234801561001057600080fd5b50610272806100206000396000f3fe60806040526004361061006d576000357c0100000000000000000000000000000000000000000000000000000000900463ffffffff168063165e602c146100725780633fa4f2451461009d5780635958611e146100c85780636904c94d146100f357806372c0d7b01461014a575b600080fd5b34801561007e57600080fd5b506100876101af565b6040518082815260200191505060405180910390f35b3480156100a957600080fd5b506100b26101b9565b6040518082815260200191505060405180910390f35b3480156100d457600080fd5b506100dd6101bf565b6040518082815260200191505060405180910390f35b3480156100ff57600080fd5b506101086101c5565b604051808273ffffffffffffffffffffffffffffffffffffffff1673ffffffffffffffffffffffffffffffffffffffff16815260200191505060405180910390f35b34801561015657600080fd5b506101ad6004803603606081101561016d57600080fd5b8101908080359060200190929190803573ffffffffffffffffffffffffffffffffffffffff169060200190929190803590602001909291905050506101eb565b005b6000600154905090565b60015481565b60005481565b600260009054906101000a900473ffffffffffffffffffffffffffffffffffffffff1681565b8260008190555081600260006101000a81548173ffffffffffffffffffffffffffffffffffffffff021916908373ffffffffffffffffffffffffffffffffffffffff160217905550806001819055504260038190555050505056fea165627a7a72305820e7f902bf4bfae9838bdf411c2fd7ccd7aaa89bcb36e5186f6ccec9dcaedba1970029a165627a7a7230582053e0c557412b4437f2f96c53b79e076f6341355731e6bddd040b945489a42c600029",
  "source": "pragma solidity ^0.5.0;\n\nimport \"./Core.sol\";\nimport \"../node_modules/openzeppelin-solidity/contracts/math/SafeMath.sol\";\n\ncontract Voter is Core {\n\n    using SafeMath for uint8;\n\n    function winningProposal() internal view returns (uint winningProposal_) {\n        uint winningVoteCount = 0;\n        for (uint p = 0; p < projectsProposed.length; p++) {\n            if (projectsProposed[p].votes > winningVoteCount) {\n                winningVoteCount = projectsProposed[p].votes;\n                winningProposal_ = p;\n            }\n        }\n    }\n\n    function retrieveWinner() public {\n        uint winnerIndex = winningProposal();\n        ProjectProposedInfo memory winner = projectsProposed[winnerIndex];\n        uint32 finishTime = uint32(block.timestamp) + uint32(winner.estimatedTime);\n        createProject(finishTime, winner.company, winner.value);\n    }\n\n    function voteForProject(uint _index, bool _vote) public {\n        if (_vote) {\n            projectsProposed[_index].votes = uint8(projectsProposed[_index].votes.add(1));\n        }\n    }\n\n}",
  "sourcePath": "/Users/Cesar/Apps/dapps/hucoin/contracts/Voter.sol",
  "compiler": {
    "name": "solc",
    "version": "0.5.0+commit.1d4f565a.Emscripten.clang"
  },
  "schemaVersion": "3.0.9",
  "updatedAt": "2019-05-26T10:16:47.575Z",
  "devdoc": {
    "methods": {}
  },
  "userdoc": {
    "methods": {}
  }
}