{
  "contractName": "Voter",
  "abi": [
    {
      "constant": false,
      "inputs": [],
      "name": "recieveFounds",
      "outputs": [],
      "payable": true,
      "stateMutability": "payable",
      "type": "function"
    },
    {
      "constant": true,
      "inputs": [
        {
          "name": "",
          "type": "uint256"
        }
      ],
      "name": "projectsProposed",
      "outputs": [
        {
          "name": "company",
          "type": "address"
        },
        {
          "name": "value",
          "type": "uint256"
        },
        {
          "name": "estimatedTime",
          "type": "uint32"
        },
        {
          "name": "votes",
          "type": "uint8"
        }
      ],
      "payable": false,
      "stateMutability": "view",
      "type": "function"
    },
    {
      "constant": true,
      "inputs": [],
      "name": "getLengthOfProposedProjects",
      "outputs": [
        {
          "name": "",
          "type": "uint256"
        }
      ],
      "payable": false,
      "stateMutability": "view",
      "type": "function"
    },
    {
      "constant": false,
      "inputs": [
        {
          "name": "_estimatedTime",
          "type": "uint32"
        },
        {
          "name": "_company",
          "type": "address"
        },
        {
          "name": "_value",
          "type": "uint256"
        }
      ],
      "name": "proposeProject",
      "outputs": [],
      "payable": false,
      "stateMutability": "nonpayable",
      "type": "function"
    },
    {
      "constant": true,
      "inputs": [],
      "name": "getLengthOfCreatedProjects",
      "outputs": [
        {
          "name": "",
          "type": "uint256"
        }
      ],
      "payable": false,
      "stateMutability": "view",
      "type": "function"
    },
    {
      "constant": true,
      "inputs": [
        {
          "name": "",
          "type": "uint256"
        }
      ],
      "name": "projectsCreated",
      "outputs": [
        {
          "name": "company",
          "type": "address"
        },
        {
          "name": "value",
          "type": "uint256"
        },
        {
          "name": "finishTime",
          "type": "uint32"
        },
        {
          "name": "createdTime",
          "type": "uint32"
        }
      ],
      "payable": false,
      "stateMutability": "view",
      "type": "function"
    },
    {
      "constant": true,
      "inputs": [
        {
          "name": "index",
          "type": "uint256"
        }
      ],
      "name": "getItemOfProposedProjects",
      "outputs": [
        {
          "name": "",
          "type": "address"
        },
        {
          "name": "",
          "type": "uint256"
        },
        {
          "name": "",
          "type": "uint256"
        },
        {
          "name": "",
          "type": "uint256"
        }
      ],
      "payable": false,
      "stateMutability": "view",
      "type": "function"
    },
    {
      "constant": true,
      "inputs": [
        {
          "name": "index",
          "type": "uint256"
        }
      ],
      "name": "getItemOfCreatedProjects",
      "outputs": [
        {
          "name": "",
          "type": "address"
        },
        {
          "name": "",
          "type": "uint256"
        },
        {
          "name": "",
          "type": "uint256"
        },
        {
          "name": "",
          "type": "uint256"
        }
      ],
      "payable": false,
      "stateMutability": "view",
      "type": "function"
    },
    {
      "constant": false,
      "inputs": [
        {
          "name": "_finishTime",
          "type": "uint32"
        },
        {
          "name": "_company",
          "type": "address"
        },
        {
          "name": "_requiredValue",
          "type": "uint256"
        }
      ],
      "name": "createProject",
      "outputs": [
        {
          "name": "",
          "type": "address"
        }
      ],
      "payable": false,
      "stateMutability": "nonpayable",
      "type": "function"
    },
    {
      "constant": false,
      "inputs": [],
      "name": "checkProject",
      "outputs": [],
      "payable": true,
      "stateMutability": "payable",
      "type": "fallback"
    },
    {
      "constant": false,
      "inputs": [],
      "name": "checkProject",
      "outputs": [],
      "payable": false,
      "stateMutability": "nonpayable",
      "type": "function"
    }
  ],
  "bytecode": "0x608060405234801561001057600080fd5b50610ecc806100206000396000f3fe6080604052600436106100a4576000357c0100000000000000000000000000000000000000000000000000000000900463ffffffff16806349d2e49e146100a65780634fc40836146100b05780635b43d479146100c75780635ce477dc14610169578063a5a7ccf314610194578063af35b036146101ff578063d38981181461022a578063dfca67fe146102d2578063eee8ddd314610362578063f94e947a146103f2575b005b6100ae61049d565b005b3480156100bc57600080fd5b506100c56104e6565b005b3480156100d357600080fd5b50610100600480360360208110156100ea57600080fd5b81019080803590602001909291905050506105f7565b604051808573ffffffffffffffffffffffffffffffffffffffff1673ffffffffffffffffffffffffffffffffffffffff1681526020018481526020018363ffffffff1663ffffffff1681526020018260ff1660ff16815260200194505050505060405180910390f35b34801561017557600080fd5b5061017e610673565b6040518082815260200191505060405180910390f35b3480156101a057600080fd5b506101fd600480360360608110156101b757600080fd5b81019080803563ffffffff169060200190929190803573ffffffffffffffffffffffffffffffffffffffff16906020019092919080359060200190929190505050610680565b005b34801561020b57600080fd5b50610214610790565b6040518082815260200191505060405180910390f35b34801561023657600080fd5b506102636004803603602081101561024d57600080fd5b810190808035906020019092919050505061079c565b604051808573ffffffffffffffffffffffffffffffffffffffff1673ffffffffffffffffffffffffffffffffffffffff1681526020018481526020018363ffffffff1663ffffffff1681526020018263ffffffff1663ffffffff16815260200194505050505060405180910390f35b3480156102de57600080fd5b5061030b600480360360208110156102f557600080fd5b810190808035906020019092919050505061081b565b604051808573ffffffffffffffffffffffffffffffffffffffff1673ffffffffffffffffffffffffffffffffffffffff16815260200184815260200183815260200182815260200194505050505060405180910390f35b34801561036e57600080fd5b5061039b6004803603602081101561038557600080fd5b81019080803590602001909291905050506108b2565b604051808573ffffffffffffffffffffffffffffffffffffffff1673ffffffffffffffffffffffffffffffffffffffff16815260200184815260200183815260200182815260200194505050505060405180910390f35b3480156103fe57600080fd5b5061045b6004803603606081101561041557600080fd5b81019080803563ffffffff169060200190929190803573ffffffffffffffffffffffffffffffffffffffff1690602001909291908035906020019092919050505061094e565b604051808273ffffffffffffffffffffffffffffffffffffffff1673ffffffffffffffffffffffffffffffffffffffff16815260200191505060405180910390f35b3073ffffffffffffffffffffffffffffffffffffffff166108fc349081150290604051600060405180830381858888f193505050501580156104e3573d6000803e3d6000fd5b50565b600260009054906101000a900473ffffffffffffffffffffffffffffffffffffffff1673ffffffffffffffffffffffffffffffffffffffff1663a5a7ccf3620151807fe4493ae993e8ffc9fd191c1bcb408ae7c8b01129dc7e880c89d72b31dd6c623060026040518463ffffffff167c0100000000000000000000000000000000000000000000000000000000028152600401808463ffffffff1681526020018373ffffffffffffffffffffffffffffffffffffffff1673ffffffffffffffffffffffffffffffffffffffff1681526020018281526020019350505050600060405180830381600087803b1580156105dd57600080fd5b505af11580156105f1573d6000803e3d6000fd5b50505050565b60018181548110151561060657fe5b90600052602060002090600302016000915090508060000160009054906101000a900473ffffffffffffffffffffffffffffffffffffffff16908060010154908060020160009054906101000a900463ffffffff16908060020160049054906101000a900460ff16905084565b6000600180549050905090565b60016080604051908101604052808473ffffffffffffffffffffffffffffffffffffffff1681526020018381526020018563ffffffff168152602001600060ff168152509080600181540180825580915050906001820390600052602060002090600302016000909192909190915060008201518160000160006101000a81548173ffffffffffffffffffffffffffffffffffffffff021916908373ffffffffffffffffffffffffffffffffffffffff1602179055506020820151816001015560408201518160020160006101000a81548163ffffffff021916908363ffffffff16021790555060608201518160020160046101000a81548160ff021916908360ff160217905550505050505050565b60008080549050905090565b6000818154811015156107ab57fe5b90600052602060002090600302016000915090508060000160009054906101000a900473ffffffffffffffffffffffffffffffffffffffff16908060010154908060020160009054906101000a900463ffffffff16908060020160049054906101000a900463ffffffff16905084565b600080600080600060018681548110151561083257fe5b906000526020600020906003020190508060000160009054906101000a900473ffffffffffffffffffffffffffffffffffffffff168160020160009054906101000a900463ffffffff1682600101548360020160049054906101000a900460ff168263ffffffff1692508060ff1690509450945094509450509193509193565b600080600080600080868154811015156108c857fe5b906000526020600020906003020190508060000160009054906101000a900473ffffffffffffffffffffffffffffffffffffffff168160020160009054906101000a900463ffffffff168260020160049054906101000a900463ffffffff1683600101548263ffffffff1692508163ffffffff1691509450945094509450509193509193565b6000803073ffffffffffffffffffffffffffffffffffffffff163190506000610975610bfe565b604051809103906000f080158015610991573d6000803e3d6000fd5b5090508382111515610a0b576040517f08c379a00000000000000000000000000000000000000000000000000000000081526004018080602001828103825260118152602001807f496e737566666963656e74206d6f6e657900000000000000000000000000000081525060200191505060405180910390fd5b83820391508073ffffffffffffffffffffffffffffffffffffffff166372c0d7b08787876040518463ffffffff167c0100000000000000000000000000000000000000000000000000000000028152600401808463ffffffff1681526020018373ffffffffffffffffffffffffffffffffffffffff1673ffffffffffffffffffffffffffffffffffffffff1681526020018281526020019350505050600060405180830381600087803b158015610ac157600080fd5b505af1158015610ad5573d6000803e3d6000fd5b50505050600081905060006080604051908101604052808873ffffffffffffffffffffffffffffffffffffffff1681526020018781526020018963ffffffff1681526020014263ffffffff168152509080600181540180825580915050906001820390600052602060002090600302016000909192909190915060008201518160000160006101000a81548173ffffffffffffffffffffffffffffffffffffffff021916908373ffffffffffffffffffffffffffffffffffffffff1602179055506020820151816001015560408201518160020160006101000a81548163ffffffff021916908363ffffffff16021790555060608201518160020160046101000a81548163ffffffff021916908363ffffffff1602179055505050508093505050509392505050565b60405161029280610c0f8339019056fe608060405234801561001057600080fd5b50610272806100206000396000f3fe60806040526004361061006d576000357c0100000000000000000000000000000000000000000000000000000000900463ffffffff168063165e602c146100725780633fa4f2451461009d5780635958611e146100c85780636904c94d146100f357806372c0d7b01461014a575b600080fd5b34801561007e57600080fd5b506100876101af565b6040518082815260200191505060405180910390f35b3480156100a957600080fd5b506100b26101b9565b6040518082815260200191505060405180910390f35b3480156100d457600080fd5b506100dd6101bf565b6040518082815260200191505060405180910390f35b3480156100ff57600080fd5b506101086101c5565b604051808273ffffffffffffffffffffffffffffffffffffffff1673ffffffffffffffffffffffffffffffffffffffff16815260200191505060405180910390f35b34801561015657600080fd5b506101ad6004803603606081101561016d57600080fd5b8101908080359060200190929190803573ffffffffffffffffffffffffffffffffffffffff169060200190929190803590602001909291905050506101eb565b005b6000600154905090565b60015481565b60005481565b600260009054906101000a900473ffffffffffffffffffffffffffffffffffffffff1681565b8260008190555081600260006101000a81548173ffffffffffffffffffffffffffffffffffffffff021916908373ffffffffffffffffffffffffffffffffffffffff160217905550806001819055504260038190555050505056fea165627a7a72305820c32634231387fac483fee5fcceda06763a58bd311a3dd82c3ea04c2c13ba3adc0029a165627a7a7230582075a76d231d712e1f02cfb99f3c5a2fe45bd354e5d0ae8fa03a91c7a9d03b37b30029",
  "source": "pragma solidity ^0.5.0;\n\nimport \"./Core.sol\";\nimport \"../node_modules/openzeppelin-solidity/contracts/math/SafeMath.sol\";\n\ncontract Voter is Core {\n\n    Core manager;\n    using SafeMath for uint8;\n\n    function checkProject() public {\n        manager.proposeProject(1 days, address(0xe4493ae993e8ffc9fd191c1bcb408ae7c8b01129dc7e880c89d72b31dd6c6230), 2);\n    }\n\n    function voteForProject(uint index, bool vote) internal {\n        if (vote) {\n            ProjectProposedInfo storage projectChoosed = projectsProposed[index];\n            projectChoosed.votes = uint8(projectChoosed.votes.add(1));\n        } else {\n            ProjectProposedInfo storage projectChoosed = projectsProposed[index];\n            projectChoosed.votes = uint8(projectChoosed.votes.sub(1));\n        }\n    }\n\n}",
  "sourcePath": "/Users/Cesar/Apps/dapps/hucoin/contracts/Voter.sol",
  "compiler": {
    "name": "solc",
    "version": "0.5.0+commit.1d4f565a.Emscripten.clang"
  },
  "schemaVersion": "3.0.9",
  "updatedAt": "2019-05-26T00:10:56.234Z",
  "devdoc": {
    "methods": {}
  },
  "userdoc": {
    "methods": {}
  }
}