{
  "contractName": "Winner",
  "abi": [
    {
      "constant": true,
      "inputs": [],
      "name": "value",
      "outputs": [
        {
          "name": "",
          "type": "uint256"
        }
      ],
      "payable": false,
      "stateMutability": "view",
      "type": "function"
    },
    {
      "constant": true,
      "inputs": [],
      "name": "finishTime",
      "outputs": [
        {
          "name": "",
          "type": "uint256"
        }
      ],
      "payable": false,
      "stateMutability": "view",
      "type": "function"
    },
    {
      "constant": true,
      "inputs": [],
      "name": "company",
      "outputs": [
        {
          "name": "",
          "type": "address"
        }
      ],
      "payable": false,
      "stateMutability": "view",
      "type": "function"
    },
    {
      "inputs": [
        {
          "name": "_finishTime",
          "type": "uint256"
        },
        {
          "name": "_company",
          "type": "address"
        },
        {
          "name": "_balance",
          "type": "uint256"
        }
      ],
      "payable": false,
      "stateMutability": "nonpayable",
      "type": "function",
      "constant": false,
      "name": "setParamsAndCreate",
      "outputs": []
    },
    {
      "constant": false,
      "inputs": [],
      "name": "setParams",
      "outputs": [],
      "payable": false,
      "stateMutability": "nonpayable",
      "type": "function"
    }
  ],
  "bytecode": "0x608060405234801561001057600080fd5b50610232806100206000396000f3fe608060405260043610610062576000357c0100000000000000000000000000000000000000000000000000000000900463ffffffff1680633fa4f245146100675780635958611e146100925780636904c94d146100bd57806372c0d7b014610114575b600080fd5b34801561007357600080fd5b5061007c610179565b6040518082815260200191505060405180910390f35b34801561009e57600080fd5b506100a761017f565b6040518082815260200191505060405180910390f35b3480156100c957600080fd5b506100d2610185565b604051808273ffffffffffffffffffffffffffffffffffffffff1673ffffffffffffffffffffffffffffffffffffffff16815260200191505060405180910390f35b34801561012057600080fd5b506101776004803603606081101561013757600080fd5b8101908080359060200190929190803573ffffffffffffffffffffffffffffffffffffffff169060200190929190803590602001909291905050506101ab565b005b60015481565b60005481565b600260009054906101000a900473ffffffffffffffffffffffffffffffffffffffff1681565b8260008190555081600260006101000a81548173ffffffffffffffffffffffffffffffffffffffff021916908373ffffffffffffffffffffffffffffffffffffffff160217905550806001819055504260038190555050505056fea165627a7a723058208104e01f88456bfbe2d2a383dbe5ed895bf28cee5cac5e1fbadb60cd9a773f2a0029",
  "source": "pragma solidity ^0.5.0;\n\ncontract Winner {\n    uint public finishTime;\n    uint public value;\n    address public company;\n    uint createdTime;\n\n    function setParamsAndCreate(uint _finishTime, address _company, uint _balance) external {\n        finishTime = _finishTime;\n        company = _company;\n        value = _balance;\n        createdTime = block.timestamp;\n    }\n\n\n\n}",
  "sourcePath": "/Users/Cesar/Apps/dapps/hucoin/contracts/Winner.sol",
  "compiler": {
    "name": "solc",
    "version": "0.5.0+commit.1d4f565a.Emscripten.clang"
  },
  "schemaVersion": "3.0.9",
  "updatedAt": "2019-05-25T17:14:29.483Z",
  "devdoc": {
    "methods": {}
  },
  "userdoc": {
    "methods": {}
  }
}