{
  "contractName": "Winner",
  "abi": [
    {
      "constant": true,
      "inputs": [],
      "name": "value",
      "outputs": [
        {
          "name": "",
          "type": "uint256"
        }
      ],
      "payable": false,
      "stateMutability": "view",
      "type": "function"
    },
    {
      "constant": true,
      "inputs": [],
      "name": "finishTime",
      "outputs": [
        {
          "name": "",
          "type": "uint256"
        }
      ],
      "payable": false,
      "stateMutability": "view",
      "type": "function"
    },
    {
      "constant": true,
      "inputs": [],
      "name": "company",
      "outputs": [
        {
          "name": "",
          "type": "address"
        }
      ],
      "payable": false,
      "stateMutability": "view",
      "type": "function"
    },
    {
      "constant": false,
      "inputs": [
        {
          "name": "_finishTime",
          "type": "uint256"
        },
        {
          "name": "_company",
          "type": "address"
        },
        {
          "name": "_balance",
          "type": "uint256"
        }
      ],
      "name": "setParamsAndCreate",
      "outputs": [],
      "payable": false,
      "stateMutability": "nonpayable",
      "type": "function"
    },
    {
      "constant": true,
      "inputs": [],
      "name": "getProjectPrice",
      "outputs": [
        {
          "name": "",
          "type": "uint256"
        }
      ],
      "payable": false,
      "stateMutability": "view",
      "type": "function"
    }
  ],
  "bytecode": "0x608060405234801561001057600080fd5b50610272806100206000396000f3fe60806040526004361061006d576000357c0100000000000000000000000000000000000000000000000000000000900463ffffffff168063165e602c146100725780633fa4f2451461009d5780635958611e146100c85780636904c94d146100f357806372c0d7b01461014a575b600080fd5b34801561007e57600080fd5b506100876101af565b6040518082815260200191505060405180910390f35b3480156100a957600080fd5b506100b26101b9565b6040518082815260200191505060405180910390f35b3480156100d457600080fd5b506100dd6101bf565b6040518082815260200191505060405180910390f35b3480156100ff57600080fd5b506101086101c5565b604051808273ffffffffffffffffffffffffffffffffffffffff1673ffffffffffffffffffffffffffffffffffffffff16815260200191505060405180910390f35b34801561015657600080fd5b506101ad6004803603606081101561016d57600080fd5b8101908080359060200190929190803573ffffffffffffffffffffffffffffffffffffffff169060200190929190803590602001909291905050506101eb565b005b6000600154905090565b60015481565b60005481565b600260009054906101000a900473ffffffffffffffffffffffffffffffffffffffff1681565b8260008190555081600260006101000a81548173ffffffffffffffffffffffffffffffffffffffff021916908373ffffffffffffffffffffffffffffffffffffffff160217905550806001819055504260038190555050505056fea165627a7a72305820e7f902bf4bfae9838bdf411c2fd7ccd7aaa89bcb36e5186f6ccec9dcaedba1970029",
  "source": "pragma solidity ^0.5.0;\n\nimport \"./Core.sol\";\n\nlibrary address_make_payable {\n   function make_payable(address x) internal pure returns (address payable) {\n      return address(uint160(x));\n   }\n}\n\ncontract Winner {\n\n    uint public finishTime;\n    uint public value;\n    address public company;\n    uint createdTime;\n\n    using address_make_payable for address;\n\n    function setParamsAndCreate(uint _finishTime, address _company, uint _balance) external {\n        finishTime = _finishTime;\n        company = _company;\n        value = _balance;\n        createdTime = block.timestamp;\n    }\n\n    function getProjectPrice() public view returns (uint) {\n        return value;\n    }\n\n    function finishProject(address _company, uint _valueInEther) internal {\n        address payable projectMaker = _company.make_payable();\n        projectMaker.transfer(_valueInEther);\n    }\n\n}",
  "sourcePath": "/Users/Cesar/Apps/dapps/hucoin/contracts/Winner.sol",
  "compiler": {
    "name": "solc",
    "version": "0.5.0+commit.1d4f565a.Emscripten.clang"
  },
  "schemaVersion": "3.0.9",
  "updatedAt": "2019-05-26T10:16:47.531Z",
  "devdoc": {
    "methods": {}
  },
  "userdoc": {
    "methods": {}
  }
}